:020000040800F2
:10100000C404002055A100080D840008FD830008D9
:10101000018400080584000809840008000000001D
:101020000000000000000000000000001184000823
:101030001584000800000000198400081D840008C1
:101040009DA100089DA100089DA100089DA1000888
:101050009DA100089DA100089DA100089DA1000878
:101060009DA100089DA100089DA100089DA1000868
:101070009DA100089DA100089DA100089DA1000858
:101080009DA100089DA100089DA100089DA1000848
:101090009DA100089DA100089DA100089DA1000838
:1010A0009DA10008498600089DA100089DA1000897
:1010B0009DA100089DA100089DA100089DA1000818
:1010C0009DA100089DA100089DA100089DA1000808
:1010D0009DA100089DA100089DA100089DA10008F8
:1010E0009DA100089DA100089DA10008000000002E
:1010F00000000000000000000000000000000000F0
:1011000000000000000000005FF808F10023FF224B
:1011100003608380827100F10803483000221A7056
:101120005A705A8004339842F8D170472DE9F00F75
:101130009A4282B000913CDC0021DFF880A0DDF80B
:1011400028B001916FF00049002ADDF80080B4BF9B
:1011500002F5C06111463AF811509044014600264C
:10116000B1F90A40144FC4EB080404F5904487FB1E
:1011700004C74FEAE47CCCEB272707EB4707A4EB37
:1011800047243AF814404F7A013607FB04554D4581
:1011900001F1040101DC102EE2D1A94501DDA946CF
:1011A00001925A449342CFDA019802B0BDE8F00FA1
:1011B000704700210191F7E7ABAAAA2AA0CB00084B
:1011C00030B4031F0478457807E02CBF00220122C9
:1011D000023B72B19A88028008469A78991C944220
:1011E000F3D1DA78023BAA4294BF00220122002AFE
:1011F000F0D10470457030BC704700BF88422DE9C3
:10120000F047064689462BD0841CA14228D0051DF4
:1012100011E0521094F801A004D05200A81A3146EF
:1012200009F034F8C145377086F801A005F10205D0
:1012300004F1020414D015F8027C3378A8469F42CA
:1012400010D02CBF00230123A21B2046002BE0D18D
:10125000FFF7B6FFC14505F1020504F10204EAD12A
:10126000BDE8F087737815F8012C9A422CBF002353
:101270000123E9E72DE9F00302F1FF3C0CEBDC7CF4
:101280004FEA6C0C82B06145ADF80430B8BF0B4634
:101290006CDA5D1C6B0003F10044013C10F8146033
:1012A00010F8258000EB4409B0451F4600EB85048B
:1012B00035D02CBF0026012616B1013B00EB4304BC
:1012C0002688C519634525F8026CE2DBD50705D4ED
:1012D000023A02EBD272B3EB620F3BD08B429DF825
:1012E00004609DF805C013DD5A1E02EBD272521045
:1012F00010F8125000EB4204B54225D02CBF002755
:101300000127551E05EBD5756D1087B900EB430419
:10131000267084F801C002B0BDE8F003704766781B
:1013200099F80150AE422CBF00260126C4E7278859
:10133000914220F81370EBDA13462A4610F8125047
:1013400000EB4204B542D9D1677867452CBF00272E
:101350000127D6E701335B0003F10042013A30F880
:101360001220013B228000EB4304B7E700EB41046D
:101370000B46ABE72DE9F04F0B1A212B85B08246C7
:10138000934640F3FB80002A00F0C78000F1020979
:101390009B101AF813209AF802000BF1FF3B9042C1
:1013A0000AEB430400F0A0802CBF00250125002D8E
:1013B0006DD011F8025CAA4200F0A7802CBF002279
:1013C0000122002A72D1A84200F0E3802CBF002342
:1013D0000123002B79D09AF800309AF8010031F8F7
:1013E000024C1A46AAF8004001F8010C01F8023C30
:1013F0009AF8026008464D462C469AF80050A046DE
:10140000AE4208D02CBF002301236BB1A678023472
:10141000AE42A046F6D19AF8013067789F422CBFC1
:1014200000230123002BF1D1A0F1020E734607E047
:1014300094BF002701271A1A77B11EF80220023B39
:10144000AA42F5D19AF801705A7897422CBF00272A
:1014500001271A1A002FF0D1A3420BD962781888FD
:10146000254625F8020B5A701E70A67813F8022C38
:101470001846C1E720465A46FFF77CFFCAEB040333
:10148000212B7BDDBBF1000F48D0214680E711F80E
:10149000025CA84230D02CBF00200120A8B9AA428B
:1014A0006FD02CBF00220122002A94D19AF801208B
:1014B0009AF800002588AAF800500AF81300627014
:1014C00011F8022C9AF8026094E7B9F800209AF813
:1014D00000609AF801308AF80260AAF800208AF8C1
:1014E000033011F8022C85E765789AF80360AE4264
:1014F0002CBF002501255AE711F8010C9AF803606A
:1015000086422CBF00200120C8E711F8012C667824
:1015100096422CBF0022012253E788465E10B41E7B
:1015200064100AEB4407002500E0013C7B5B4FF0B0
:101530000002ADF80C308DF80020039B5046214688
:101540003246023DFFF796FE002CEED1444634F8B9
:10155000023DBAF80000ADF80C30CAEB04054FF0BC
:10156000000128F8020C039B8DF800106A10504609
:101570000021FFF77FFE032DA046E7DC05B0BDE8A4
:10158000F08F11F8012C607890422CBF00220122CC
:101590008AE711F8013C9AF803209A422CBF0023F5
:1015A000012316E72DE9F04F002389B003700446AC
:1015B000009104AB002203F8012B08A98B42F9D15A
:1015C0006078002800F0218100F1FF3C5FFA8CFC7C
:1015D0000CF1010C13464FEA4C0C1746914607E0FC
:1015E0000233012163455FFA86F902F8101C15D019
:1015F000E218917808AA0A4412F8105C09F1010671
:10160000002DEDD0092908BF013703F1020308BFFF
:10161000FFB20121634502F8101CE9D1B9F1000FB6
:1016200000F0F3800025AC468445A8463CD20CF17E
:10163000010A5FFA8AFA824533D24FEA4C0C5346CC
:1016400003E00133DBB298422BD904EB0C018A781A
:101650005D00092A04EB0506F3D096F802E09645F2
:10166000EFD1F678C97806F1010E714501F1010B51
:1016700001D05E45E5D1B1428CBF2D1904EB0C05BC
:101680000335287808F1080104EB4101C8708A701D
:1016900060780133DBB208F1010898425FFA88F8FC
:1016A000D3D8D4468445C2D304EB480604F11203D0
:1016B0001236B34201931BD0F51A6A10B2FA82F2C5
:1016C000C2F11F02520018463146FFF753FE212D8A
:1016D00040F3AA8004F1320529460198FFF78EFDF8
:1016E000AE4205D028460235FFF76AFDAE42F9D179
:1016F00008EB0903DBB2012B00F0A0803B44DBB216
:10170000022B00984FF000010CBF0122022201F0D1
:10171000A9FA6078002878D008F1FF3904F11403A1
:101720005FFA89F9002603EB4909B246CDF80C802F
:101730000293C846B146264605E009F101035FFA67
:1017400083F948455ED906EB490797F802B008AD22
:101750005D4415F8102C002AEFD0009B4FF4D07494
:1017600004FB0A346434204600215A4601F0E2FFAB
:10177000BBF1090F20464FF0010149D0002201F0D2
:10178000D9FF7F222046022101F0D4FF002205F874
:10179000102C039B5BB3029D019F03E0454526D0BF
:1017A0002F4602353B785B45F8D1204602217A78F6
:1017B00001F0C0FF0AF1010A009B5FFA8AFA4FF4B8
:1017C000D07404FB0A346434204600215A4601F0E8
:1017D000B1FF7A7820460132D2B2012101F0AAFF8E
:1017E000204602217F2201F0A5FF4545D8D170781F
:1017F00009F101035FFA83F90AF1010A48455FFA2A
:101800008AFAA0D8BAF1030F39D009B0BDE8F08F39
:10181000FA7801F08FFFFA782046022101F08AFF62
:10182000012205F8102CB4E731460198FFF7E6FCD9
:1018300008EB0903DBB2012B7FF460AFA578092D1B
:1018400035D06378022B26D82BD1009800210322B3
:1018500001F008FA009B2A4603F1640420460021A7
:1018600001F068FF20460121002201F063FF2046BD
:1018700002217F2209B0BDE8F04F01F05BBF009B61
:10188000012103F244542046002201F053FF204678
:1018900002210022EEE700980021042201F0E2F983
:1018A000D8E700210A46009801F0DCF9D2E7009859
:1018B0000021082201F0D6F96378002BA5D0009B07
:1018C000002703F164053E46E31993F80380284698
:1018D0004246012101F02EFF28464246022101F036
:1018E00029FF28460021092201F024FF01366378F0
:1018F000F6B2B34207F1020705F5D07585D9042E7B
:10190000E2D182E730B40D4D0D4C0023EA18127A73
:101910000C49403A002AD4BF6FF03F00402000EB52
:10192000C21281FB0201D217C2EB6112E11801332E
:101930000C2BCA71EAD130BC704700BF580600209A
:10194000EC0600201F85EB510A4B0B4A10B403F143
:101950001804597A187AA1F5005101EBC01102332D
:1019600041F38911A34202F8011FF2D15DF8044B43
:10197000704700BF58060020F2060020F8B5594D08
:10198000AB79012B06D0112B30D0202B3FD0212B4F
:1019900053D0F8BDEF79DFF868C1002F47D1297A1D
:1019A0008CF80070F72900F095804F4E00243246E5
:1019B000334601E0412868D80901C9B2197050784E
:1019C0000232084303F8010B11780444F729C6EBEF
:1019D0000300E4B2EED1461E3544297A641AE4B21B
:1019E0008C4256D0FF238CF80030F8BDEB79002BE9
:1019F000CFD12B7A002BCCD16B7A002BC9D1AB7A0B
:101A0000F72BC6D1BDE8F840384804F03BBDEB7970
:101A1000002BBED12B7A002BBBD16B7A002BB8D117
:101A2000AB7AF72BB5D1324B01221A70F8BD9CF876
:101A3000003001339F42ACD1B1E7EB792D4C191145
:101A400003F00F022C48CBB2032B2270037017D87F
:101A50000A2A15D8294C6B7A4FF4CC7606FB014143
:101A6000287A1B02EC7A43EA0033A87A234343EA3C
:101A7000001304310C32012021F812304875F8BDF2
:101A80001A48BDE8F84004F02FBC461E3544297AB8
:101A9000A4E7A6B1154CD7B93846C4F80074831929
:101AA000B3F5806F3FF675AF20440F49324608F01A
:101AB00077FBD4F800343344C4F80034F8BD002F69
:101AC0003FF467AF0948BDE8F84004F053BDD4F8CF
:101AD0000004E4E77B42DBB29F4283D14FF0FF3644
:101AE000D8E700BF580600206006002064150020DB
:101AF00018050020E806002044050020CC0D002039
:101B0000190500202DE9F0010F48104CDFF8508036
:101B10000F4F104A104E114DDFF848C00023FF212F
:101B2000C4F8843088F80030C4F880303B70C0F8C6
:101B300084303170C0F88030297053628CF80030E6
:101B40001362BDE8F001704748050020D005002071
:101B5000180500201C05002044050020E806002090
:101B60000C05002019050020F8B5124B124D1F7806
:101B7000EB1913F8013CF72B00D0F8BD0F4C04F122
:101B8000500C637ABB4205D0FF2B03D01034644560
:101B9000F7D1F8BD267A56B10023E25CE95C013347
:101BA0009142D8B201D0FF2AF0D1B042F5D3E36818
:101BB0009847F8BD0C050020580600206CA50008C9
:101BC0002DE9F003614BD3F88470D3F880403F1BBC
:101BD00017F07F07F7D15E4E06F1060816F801CF21
:101BE000D3F88040D3F88450013C641B6406574D01
:101BF000F6D0D5F88440464504F1010909F07F0983
:101C000005F804C0C5F88490E8D1D3F88040D3F833
:101C10008450013C641B66064C4DF6D0D5F88440D8
:101C20004FF0010C04EB0C0606F07F0605F804C02B
:101C3000C5F88460D3F88040D3F88450013C641B1D
:101C40006406424DF6D0D5F88440661C06F07F0647
:101C50002855C5F88460002A76D000252E46C85D38
:101C60000F440644F6B24FEA101CD3F88000D3F8B4
:101C700084400138001B4006344CF6D0D4F8840070
:101C800000F1010808F07F0804F800C0C4F884805F
:101C900097F800C00CF00F0CD3F88000D3F8844004
:101CA0000138001B4706294CF6D0D4F884000135D2
:101CB000EDB2471C07F07F079542C4F8847004F822
:101CC00000C02F46CBD3340906F00F02D3F88010A2
:101CD000D3F884000139091A4D061C48F6D0D0F813
:101CE00084104D1C05F07F054454C0F88450D3F88F
:101CF0008010D3F884000139091A4C061348F6D035
:101D0000D0F884104C1C04F07F044254C0F8844086
:101D1000D3F88020D3F88410013A521A50060B49A8
:101D2000F6D0D1F88420F724501C00F07F008C54AA
:101D3000C1F88400D3F88410D3F880208A1A5206A0
:101D4000F8D1BDE8F00370471446BFE7480500200E
:101D50006BA50008F8B50746B1B10D460026402D29
:101D600034BF2C464024304639462246FFF728FF30
:101D700001362D1B2744F6B2F1D1002130460A4628
:101D8000BDE8F840FFF71CBF0E46F6E738B590F8FF
:101D900060300546002463B14FF4D07000FB04505E
:101DA000643003F0B9FE013495F86030E4B2A34228
:101DB000F2D80C4A0023516AFC204C1C04F01F048A
:101DC000505485F856305462A5F85830A5F85A306A
:101DD00085F8203085F8223085F82130C5F8683D37
:101DE00038BD00BF1C0500202DE9F047044600F176
:101DF00007094A488846FFF789F94B4604F1130161
:101E0000002203F8012B8B42FAD104F16406174635
:101E10003546284607F5D07701F024F9B7F5D06F9D
:101E2000C5F8D09005F5D075F3D1002504F2E4672C
:101E30007819414605F5CC7505F06CFFB5F5CC6F0A
:101E4000F6D100230121022207207F254FF0780AD6
:101E50004FF004094FF032084FF0060C4FF0030E1C
:101E6000E17084F8791084F8821084F8692084F88D
:101E7000782084F87F2084F8203084F8223084F899
:101E80002330A370A3712375637584F8643084F8DC
:101E9000653084F8673084F8753084F8743084F8DD
:101EA000773084F8763084F87B3084F87C3084F89E
:101EB0007D3084F87E3084F8853084F8833084F86F
:101EC00001A0207184F8059084F8665084F8685069
:101ED00084F87A8084F884C004F19D0284F8940028
:101EE00004F21D1184F8963084F8973084F8983005
:101EF00084F895E0802300251370557002329142DA
:101F0000F8D1012284F89C503046394684F860208C
:101F10002B4601F0B3FB2570BDE8F087C404002018
:101F2000F8B590F8203004460E46002B49D190F8C1
:101F30002330002B45D14278272A43D82B4A01254C
:101F4000506A002300EB050C4FF6FF71FA270CF0E6
:101F50001F0CC2F824C084F8513084F8223084F871
:101F6000523084F85630A4F85C3084F85E30A4F81F
:101F7000541084F85010175484F8216084F82050CD
:101F800004F1380304F150014FF6FF7223F8022BDD
:101F90009942F9D194F8603000256BB14FF4D070BC
:101FA00000FB05403146643001F0CAF9013594F870
:101FB0006030EDB2AB42F1D80023C4F8683DE3864F
:101FC000F8BDF8BD0A480B4F00FB02F0A1780A4D9E
:101FD000A7FB002005FB01F1C0080B2284F8343078
:101FE0006362A062E16284F83020A7E71C0500204C
:101FF0000DBB0200CDCCCCCC063A6D0090F8203061
:102000000BB1FFF7C3BE7047F8B5B0F858300546BE
:1020100013B1013BA0F85830B5F85A3013B1013B69
:10202000A5F85A30EB8E2E460133EB8605F11807E2
:10203000348F84B995F860307BB14FF4D07000FBD9
:102040000450643003F0FAFC013495F86030E4B2D7
:10205000A342F2D8348F230401D4013C34870236E2
:10206000BE42E5D105F2E46005F0B4FE05F67C0061
:1020700005F0B0FE05F6142005F0ACFE05F6AC3018
:10208000BDE8F84005F0A6BE70B5037882B00446FE
:102090000D460A2B76D8DFE813F07700C80014014C
:1020A000300114017700300114014B010B001401C1
:1020B00090F82D07B4F80237B4F80C1704EB400081
:1020C000B0F81607591A00FB01F1A3EB11432B805E
:1020D00094F8C508B4F89A38B4F8A41804EB400092
:1020E000B0F8AE08591A00FB01F1A3EB11436B8065
:1020F00094F85D0AB4F8323AB4F83C1A04EB4000A4
:10210000B0F8460A591A00FB01F1A3EB1143AB806A
:1021100094F8F51BB4F8CA3BB4F8D40B04EB4101B6
:10212000B1F8DE1B181A01FB00F094F8F816A3EBC7
:102130001043EB8029B1B4F83E17D1F1010138BF4B
:102140000021117094F890382BB1B4F8D638D3F13F
:10215000010338BF00235370A379002B00F01D81C9
:10216000B4F85830002B40F02F81B4F85A100023F7
:102170009370002956D16379002B40F0078194F8C1
:102180002030D37002B070BDB0F8FA3690F8F8166F
:102190002B8090F82667B0F80237B0F80C0776026B
:1021A000B6B2181A06FB00F0A3EB10436B8094F84C
:1021B0002D67B4F80237B4F80C0704EB4606B6F8FE
:1021C0001667181A06FB00F0A3EB1043AB8094F8D7
:1021D0002E67B4F80237B4F80C0704EB4606B6F8DD
:1021E0001667181A06FB00F0A3EB1043EB8029B129
:1021F000B4F83E17D1F1010138BF0021117094F8F5
:10220000F83623B1B4F84037003318BF0123B4F8CF
:1022100058105370002947D1B4F85A3000219170FA
:10222000002BA8D00123D370ACE7B0F8FA3690F8B1
:10223000F8162B80B0F892386B8090F82D67B0F8C4
:10224000023700EB4606B0F80C07B6F81667181A06
:1022500006FB00F0A3EB1043AB8094F8C568B4F81C
:102260009A38B4F8A40804EB4606B6F8AE68181A13
:1022700006FB00F0A3EB1043EB8029B1B4F83E1746
:10228000D1F1010138BF0021117094F89038002B72
:10229000BDD0B4F8D638B4F85810D3F1010338BF24
:1022A000002353700029B7D0237D002B71D06379B0
:1022B000002B6ED0B4F85A30002BAFD101239370AD
:1022C00059E7B0F8FA1690F8F8362980B0F8921865
:1022D0006980B0F82A1AA980B0F8C21BE9802BB136
:1022E000B0F83E37D3F1010338BF0023137094F8E0
:1022F0009038002B3FF42FAF27E7B0F8FA3690F86C
:10230000F8162B80B0F892386B8090F82D67B0F8F3
:10231000023700EB4606B0F80C07B6F81667181A35
:1023200006FB00F0A3EB1043AB8094F8C66896E779
:1023300000F2E460019205F073FE288004F67C0050
:1023400005F06EFE688004F6142005F069FEA88092
:1023500004F6AC3005F064FE94F8F836019AE88093
:1023600023B1B4F84037003318BF0123137094F839
:10237000F836002B3FF44BAFB4F84037002B3FF456
:1023800046AF94F89038002B83D140E70023D370F8
:10239000F8E6B4F85A30012141E794F8283A2BB115
:1023A000B4F86E3AD3F1010338BF0023937094F868
:1023B000C03B002B3FF4E5AEB4F8063CD3F101037B
:1023C00038BF0023D370DDE6237D3BB163792BB1A9
:1023D000B4F85A1000293FF471AFC8E6B4F85A10A7
:1023E0000123C5E603780A2B6BD8DFE803F0563BE0
:1023F0000D3B0D563B0D06060D00FF230B704B7079
:102400008B70CB700020704790F85837D3F10103E0
:1024100038BF00235B420B7090F8F038002B0CBFE4
:10242000FF2301234B7090F8883A002B0CBFFF2349
:1024300002238B7090F8203C002B0CBFFF2303235A
:10244000CB7090F85837002B39D190F8F038002B2A
:1024500035D190F8883A93BB90F8200C003018BF23
:1024600001207047FF230B704B7090F85837D3F161
:10247000010338BF00235B428B7090F8F038002BCB
:102480000CBFFF230123CB7090F85837BBB990F8ED
:10249000F008003018BF01207047FF230B704B700D
:1024A0008B7090F85837D3F1010338BF00235B429B
:1024B000CB7090F85807003018BF012070470120FA
:1024C00070470020704700BF10B490F8443DC3B17E
:1024D00090F8453D072B14D80C1D0A46002302F83E
:1024E000013B9442FAD190F8452D3AB1FF22CA54EB
:1024F00090F8452D0133DBB29A42F7D85DF8044BD2
:10250000704703780A2BF9D8DFE803F0296E489367
:10251000482993484806480090F82D3700EB4303BC
:10252000B3F816371B120B7090F8C53800EB430355
:10253000B3F8AE381B124B7090F85D3A00EB4303D2
:10254000B3F8463A1B128B7090F8F53B00EB430052
:10255000B0F8DE3B1B12CB705DF8044B704790F86F
:10256000F8362BB1B0F83E37002B0CBFFF23002309
:102570000B7090F826375B004B7090F82D3700EB0E
:102580004303B3F816371B128B7090F82E3700EB0D
:102590004300B0F816371B12CB70AFE790F8F8364F
:1025A00023B1B0F83E37002B78D000230B7090F8A1
:1025B000903823B1B0F8D638002B64D000234B708C
:1025C00090F8283A23B1B0F86E3A002B56D0002389
:1025D0008B7090F8C03B002BBDD0B0F8063C002BB0
:1025E00056D00023CB70B7E790F8F8362BB1B0F88F
:1025F0003E37002B0CBFFF2300230B7090F8903860
:102600002BB1B0F8D638002B0CBFFF2300234B7042
:1026100090F82D3700EB4303B3F816371B128B707D
:1026200090F8C53800EB4300B0F8AE381B12CB7001
:1026300064E790F8F8362BB1B0F83E37002B0CBFAA
:10264000FF2300230B7090F890382BB1B0F8D638E8
:10265000002B0CBFFF2300234B7090F82D3700EBAD
:102660004303B3F816371B128B7090F8C63800EB93
:102670004300B0F8AE381B12CB703FE790F8563AE3
:102680005B00DBB2A4E790F8BE385B00DBB296E7F4
:1026900090F8EE3B5B00DBB2CB705DE790F826373D
:1026A0005B00DBB282E700BF2DE9F041044600F198
:1026B0006407384604F5017803F03AFA404603F01F
:1026C00037FA04F5697003F033FA04F2E46604F2B1
:1026D000445003F02DFA304605F08EFC04F67C00E1
:1026E00005F08AFC04F6AC3504F6142005F084FCF1
:1026F000284605F081FC23780A2B16D8DFE803F082
:102700003F3F3F2A2A2A2A2A171706003846314611
:102710000322002300F0B2FF002340462946012295
:1027200000F0ACFF022384F86030BDE8F0810025A2
:1027300038467119012205F5CC75002300F09EFF83
:10274000B5F5CC6F07F5D077F2D1042384F860306B
:10275000BDE8F081032B2FD0062B2DD0052B14BF05
:1027600004220122042B94BF002301233846314662
:1027700000F084FF012384F86030BDE8F081A3B944
:102780004FF001080025384631460023013501226B
:1027900000F074FFEBB2984507F5D07706F5CC76DC
:1027A000F1D884F86080BDE8F081012B14BF4FF0B0
:1027B00004084FF00208E5E70222D3E72DE9F04FC5
:1027C00000F16403044685B0184604F5017A174603
:1027D0008846019303F0ACF9504603F0A9F904F5DB
:1027E000697003F0A5F904F2E46304F24450029323
:1027F00003F09EF9029805F0FFFB04F67C0005F05B
:10280000FBFB04F6AC3604F6142005F0F5FB30466D
:10281000019D05F0F1FB0A2F00F28A81DFE817F035
:102820004F004F004F00790079007900790079005E
:10283000A50006010B00B8F1080F00F0EC810023A1
:1028400001227F2784F874200198029984F8673068
:1028500084F8753084F8763084F8773084F86870BE
:10286000032200F00BFF00237F22314684F8082268
:10287000504684F8073284F8143284F8153284F80C
:10288000163284F817320122022600F0F7FE84F88F
:102890006060002304E04FF4D07505FB0345643508
:1028A000012E94BF0026012685F89E61013394F81D
:1028B0006060DBB29E42EED805B0BDE8F08F002F1D
:1028C00000F0A581012F14BF04260226234600270D
:1028D00004F1740003950BE0AE4283F8672083F89F
:1028E00068C00A5403F5D0738EF8012040F22681A7
:1028F000191B0137B8F1080F4FF000024FF07F0CA1
:1029000001EB000EFDB2E7D183F8652083F866C0C5
:10291000E2E72378032B00F07C81062B00F079811D
:10292000052B14BF04220122B8F1080F00F0928198
:102930004FF0000E042F4FF07F0C4FF0010601986E
:10294000029994BF0023012384F867E084F875E0BE
:1029500084F876E084F877E084F868C084F87460DE
:1029600000F08CFE84F8606093E704F110072346C2
:10297000242604F174000022B8F1080F4FF07F0EF6
:102980001CBF83F8656083F8666083F8672083F86E
:1029900068E094F864E006F1020C83F864E094F8CF
:1029A00069E0391B5FFA8CF601442C2E83F869E04C
:1029B00007F5D07701F8102C01F80F2C01F80E2C38
:1029C00001F80D2C03F5D073D5D104F50D77012650
:1029D00094F860304FF4D071B6FBF3F203FB12634E
:1029E000DBB29E4238464FF090020F4404D001FB08
:1029F0000341943107F0D4FB0136F6B2042EE7D13F
:102A0000019FDDF808800026384608EB0601012208
:102A100006F5CC76002300F031FEB6F5CC6F07F555
:102A2000D077F1D1042684F8606032E72346002194
:102A300004F174001E1BB8F1080F4FF000024FF0B4
:102A40007F0E06EB000701F5D0716CD0B1F5D06FA9
:102A500083F8672083F868E0325403F5D0737A7006
:102A6000E8D15646012794F860304FF4D071B7FB97
:102A7000F3F203FB1273DBB29F4206F130004FF01A
:102A8000900237D001FB034160318C465CF804AF03
:102A90000B46DCF80490DCF80880DCF80CC0C6F8C3
:102AA00000A0C6F80490C6F80880C6F80CC053F819
:102AB00014AF3431D3F80490D3F80880D3F80CC0A5
:102AC000C6F810A0C6F81490C6F81880C6F81CC046
:102AD000D3F810A0D3F81490D3F81880D3F81CC002
:102AE000C6F820A0C6F82490C6F82880C6F82CC0E6
:102AF00007F056FB0137FFB2042F06F5D076B2D1AE
:102B0000019FDDF808800026384608EB0601012207
:102B100006F5CC76002300F0B1FDB6F5CC6F07F5D5
:102B2000D077F1D17EE783F8652083F866E08DE702
:102B300094F86060002E3FF4BFAEAAE6012E039D1C
:102B400051D057464FF0010894F860304FF4D071DF
:102B5000B8FBF3F203FB1283DBB2984507F13000B8
:102B60004FF0900237D001FB034160318C465CF896
:102B700004BF0B46DCF804A0DCF80890DCF80CC0BD
:102B8000C7F800B0C7F804A0C7F80890C7F80CC091
:102B900053F814BF3431D3F804A0D3F80890D3F815
:102BA0000CC0C7F810B0C7F814A0C7F81890C7F841
:102BB0001CC0D3F810B0D3F814A0D3F81890D3F8F1
:102BC0001CC0C7F820B0C7F824A0C7F82890C7F8E1
:102BD0002CC007F0E5FA08F101085FFA88F8B04563
:102BE00007F5D077B0D1DDF80490DDF80880002734
:102BF0004846414600230137012200F03FFDFBB269
:102C0000B34209F5D07908F5CC78F1D30BE701266A
:102C10005CE6022288E600274FF07F08012284F854
:102C200074200198029984F8657084F8677084F8BC
:102C3000757084F8767084F877703B4684F8668007
:102C400084F86880032200F019FD84F8057284F886
:102C5000068208E600217F2384F8651084F8663038
:102C600066E600BF30B4455C0346AA425A5404D01D
:102C700061B101290ED0022901D030BC70478278A1
:102C80000A4930BC01FB02F2C2627047294630BCDF
:102C9000FFF794BD4278064801F1CC3100FB02F207
:102CA00030BCA1FB0202D2089A627047063A6D005E
:102CB0000DBB020090F8203070B50446DBB9637894
:102CC0000E490F4A01FB03F3A2FB0313DB08A362C7
:102CD0002046FFF7E9FC04F1640600243519284674
:102CE00000F076FC04F5D074284600F059FCB4F5E9
:102CF000D06FF3D170BDFFF749F8E0E70DBB0200DC
:102D0000CDCCCCCC10B5002102220446FFF7AAFF9F
:102D100083238622842184F8632584F8833084F811
:102D2000233284F8C3132046FFF7BEFC94F820300A
:102D30008C22627013B12046FFF728F8204600214C
:102D4000FFF7EEF80023044A84F8703DC4F8682DBC
:102D5000C4F86C3D10BD00BFBCA5000810B504460A
:102D600094F8701DD0F86C0D88423DD3D4F8683DBE
:102D70001A78FF2A4FEAA2101BD0FE2A29D012F09F
:102D80003F021BD14FF4D07303FB0040643000F0CE
:102D900059FBD4F8683D00220133C4F8683DC4F8FB
:102DA0006C2D84F8702D11461A78FF2A4FEAA21074
:102DB000E3D10F4B3422C4F8683D00204FF4D073A8
:102DC00003FB0040183200216423643001F0A6FDAB
:102DD000DFE70631D4F86C0DC9B20133884284F8BC
:102DE000701DC4F8683DC3D20130C4F86C0D10BD2D
:102DF000BCA50008F8B590F820300446002B00F080
:102E00008A8002796849B0F85C308D5CC27823B161
:102E10009D421CBF012380F85E30012DA4F85C5058
:102E200040F28A80236D23F07F4323F0FF031BB918
:102E30004FF6FF73A4F8583094F85230B3EB550FA7
:102E400094F8513003DBB3EB520F80F28380002BF8
:102E500050D1564A94F85000516A01304E1CF82760
:102E600006F01F06C0B257545662D4F8682D0B28DE
:102E700094BF84F8500084F85030002A6ED0204669
:102E8000FFF76CFF94F85130B4F8541062790131B7
:102E900089B202EB4200B1EBC00FA4F8541014DB6E
:102EA0000021A4F85410207D94F85E1000280CBF77
:102EB00051200920A4F85A0049B10021012084F8CA
:102EC000521084F85E10014606E00029EBD094F819
:102ED00052100131C9B20846202A84BF0122A4F849
:102EE0005420854284F852108FBFE2780021E278A6
:102EF00084F852100133DBB29A4284F851309CBFFF
:102F0000002384F8513094F8563023B1013BDBB2F2
:102F100084F8563003B1F8BD94F82130002BFAD074
:102F20006378272B23D994F82030002BF3D0204648
:102F3000BDE8F840FEF72ABF012A2ED994F8513097
:102F4000511EB3EB610FCCBF00216FF00001A4F85C
:102F500058107CE70021A4F8581078E761782729F9
:102F600094F8501004D91C3124F811208CE7F8BDD6
:102F7000E68EE286A278052902FB06F202EB420207
:102F800094BF0846C1F10C0002EBC20200FB02F242
:102F90001C31520B24F8112076E7282194F8513087
:102FA000A4F8581053E700BFE0AE00081C0500204D
:102FB0002DE9F04F8B46C17C0BF1010C83B08C45A1
:102FC0000646CDF804C09046994635D090F860701A
:102FD000002F41D000244FF0010A05E09B450DD0A1
:102FE0000134E4B2A74223D94FF4D07505FB046540
:102FF00095F8643005F16400102BEFD1F57CDDF815
:1030000004C05946AC4542464B46E9D001F02AFE81
:1030100021460028424612484B4608BF4FF0000A9E
:10302000013402F019FE96F86070E4B2A742DBD8D2
:10303000504603B0BDE8F08F0948FF2102F00CFEB6
:1030400096F86070032FC3D9A8F17803DBB2012B87
:1030500002D9B8F17B0FBDD1012003B0BDE8F08FDC
:1030600060140020F8B50025044680F8D8502946A1
:10307000DC30242207F070F984F8025184F80351FF
:1030800084F8045184F8055184F8065184F80751F6
:1030900084F8085184F8095184F80A5184F80B51D6
:1030A00084F80C5184F80D5184F80051294604F13C
:1030B000D80043180331FF2227295A70F9D100257F
:1030C000294684F8445104F5A470242207F044F9F9
:1030D00084F86E5184F86F5184F8705184F87151FE
:1030E00084F8725184F8735184F8745184F87551DE
:1030F00084F8765184F8775184F8785184F87951BE
:1031000084F86C51294604F5A27043180331FF225C
:1031100027295A70F9D100254FF0070C4FF0060E01
:1031200003200222012305270426294684F886016C
:1031300084F8872184F88A5184F87A5184F87B5185
:1031400084F87C5184F87D5184F87E5184F87F5155
:1031500084F8805184F8815184F8895184F80E51A3
:1031600084F882C184F883E184F8847184F88561ED
:1031700084F8883104F58970242207F0EDF884F88A
:10318000385184F8395184F83A5184F83B5184F825
:103190003C5184F83D5184F83E5184F83F5184F805
:1031A000405184F8415184F8425184F8435184F8E5
:1031B0003651294604F5877043180331FF22272929
:1031C0005A70F9D104F28B1304F28F11FF2203F825
:1031D000012B8B42FAD10023012284F8D43084F8E9
:1031E000D53084F8D63084F8963184F8953184F857
:1031F000D73084F89F21F8BD10B490F8D43063B173
:1032000094B2002303F1300150F821100133CC8532
:1032100090F8D410DBB29942F4D890F896317BB193
:10322000A2F5C05292B2B2F5805F09D990F89931F7
:1032300000EB430393F83A2062F07F0283F83A20D0
:1032400040795DF8044B003018BF0120704700BF83
:10325000F0B4017CB1B990F8D4206AB15B029BB2A2
:103260000A4602F1300150F821100132CB8690F865
:10327000D410D2B29142F4D84079F0BC003018BFDB
:1032800001207047012915D090F8D460002EF3D0AA
:1032900090F88B1191422DD00446002103E094F860
:1032A0008B51954231D00131C9B2B14204F10104D0
:1032B000F5D1E1E790F88A61002EDDD090F87A111F
:1032C00001F07F01914223D000F5BD773C460021FB
:1032D00004E02D7805F07F0595420ED00131251AC6
:1032E000C9B23D446FF4BC7CB142654404F10104B1
:1032F000EFD1C1E790F88A610021B142BCD23031F0
:1033000050F821205B02D386B6E790F88A61F4E793
:103310000021F2E790F8D4306BB1520292B2002350
:1033200003F1300150F821100133CA8690F8D4100F
:10333000DBB29942F4D84079003018BF01207047C1
:1033400038B590F83320002381F00101012A0446AA
:1033500080F8951180F8903180F8983180F8D73056
:1033600080F8D63037D0012280F8923180F893313E
:1033700080F89421002584F89151A4F89C5184F898
:103380000E51294604F58970242206F0E5FF04F564
:10339000877484F82A5084F82B5084F82C5084F8D1
:1033A0002D5084F82E5084F82F5084F8305084F833
:1033B000315084F8325084F8335084F8345084F813
:1033C000355084F82850294663180331FF222729F5
:1033D0005A70F9D138BD90F8D81090F832200139E0
:1033E000013AFF2380F8921180F8932180F89431FC
:1033F000C0E700BF90F8963110B4BBB990F8381010
:10340000012280F8993180F8962191B9002380F843
:10341000973100F1B90400F13903802100221970BD
:103420005A7002339C42F8D180F838205DF8044B82
:10343000704790F89531002BE8D080F897215DF81F
:10344000044B704738B500F5BD720446002311786F
:10345000013301F07F01082B02F8011BF7D1002591
:10346000294684F8445104F5A470242206F074FF20
:1034700084F86E5184F86F5184F8705184F871515A
:1034800084F8725184F8735184F8745184F875513A
:1034900084F8765184F8775184F8785184F879511A
:1034A00084F86C51294604F5A27043180331FF22B9
:1034B00027295A70F9D10025294684F8D85004F1FB
:1034C000DC00242206F048FF84F8025184F80351FE
:1034D00084F8045184F8055184F8065184F80751A2
:1034E00084F8085184F8095184F80A5184F80B5182
:1034F00084F80C5184F80D5184F80051294604F1E8
:10350000D80043180331FF2227295A70F9D194F8C3
:10351000D43000255BB105F1300354F8230004F0EA
:103520006BFD013594F8D430EDB2AB42F3D804F220
:103530008B1304F28F11FF2203F8012B8B42FAD177
:10354000002384F8D73084F8D63038BDF8B5054666
:1035500095F8D4000F4608B395F88B31BB420ED0D6
:10356000012303E094F88A21BA4209D0DAB21E4658
:10357000824203F1010305EB0304F3D3F8BD0026F7
:1035800006F1300355F8230004F036FD95F8D40019
:103590002E44FF2386F88B310028DDD1F8BD00BF13
:1035A00038B50546FFF74EFF95F8D430002485F86E
:1035B000D6405BB104F1300355F8230004F0FAFB68
:1035C000013495F8D430E4B2A342F3D838BD00BF3B
:1035D000837F10B4072B84BF0723837790F82030B4
:1035E000072B84BF072380F8203090F8D430002BBD
:1035F00040D0002200EB8203D3F8C010047D0132DA
:1036000081F84340D3F8C010847DD2B281F84440A1
:10361000D3F8C010447D81F84540D3F8C010C47E73
:1036200081F84640047FD3F8C010003418BF01244D
:1036300081F84840447F81F84740D3F8C010847F28
:1036400081F84940D3F8C01090F8204081F84A40F2
:10365000D3F8C010C47F81F8744090F9174090F9F6
:103660001810D3F8C03001EBC411196190F8D430B0
:103670009342BFD85DF8044B704700BF2DE9F0417D
:10368000164604461D460F46FFF7DCFE042E34BFE7
:103690003246042284F8D42084F8D5508AB1013A05
:1036A000D2B207F5CC734FF4CC7000FB0230394630
:1036B0002246C2F8C01001F5CC71814202F1040229
:1036C000F7D1002D94F8D48014BF0223012308FB06
:1036D00003F8062700230526042503204FF0070CD6
:1036E0000221012284F8860184F88A8184F87A31E3
:1036F00084F87B3184F87C3184F87D3184F87E3124
:1037000084F87F3184F8803184F8813184F88931FC
:1037100084F882C184F8837184F8846184F88551C7
:1037200084F8871184F888212046BDE8F041FFF72E
:103730004FBF00BF435C42549A4225D0332923D85F
:10374000DFE801F023232323232222222222222224
:103750002222222225222222272727272722222728
:103760002727272727222222222222222222222220
:10377000222222222222221A90F83330012B14BF57
:103780000123FF2380F894317047FFF75BBEFFF7FA
:1037900007BFFFF71DBF00BF2DE9F041857E04463E
:1037A000012D82B04FEAC1104AD0212D30D0012D19
:1037B00042D994F91930404AC91A09B2F03182FB52
:1037C0000162CF173D4EC7EB620202EB4202023D9F
:1037D000A1EB820156F82550C9B235F811201044EA
:1037E00080B294F82110364A3C3352F83140DB0164
:1037F00000B2C01A04FB00F002EBC102526890FB59
:10380000F2F0034483F30E0000B202B0BDE8F08191
:10381000294BF03183FB0123CA17C2EB630303EB8F
:103820004303A1EB8301D4F8D020C9B2525694F9D6
:103830001930104480B2D4E780B294F91930D0E73F
:10384000204ECFB2B379BB421ED1B0881D4B03F1DD
:1038500040055A7AFF2A03D002EB420292105A72B4
:103860000433AB42F5D13168FF258A1C013106EBE8
:10387000820306F822700F29124A58805D708ABFB1
:10388000002311601360D8E74FEAC71804230093A0
:1038900041466FF01F0220233046B771FDF746FC0A
:1038A0000095821F831D41463046FDF73FFC404492
:1038B00080B2B080CAE700BFABAAAA2A14000020D9
:1038C000F8AE0008C40400202DE9F04390F8D4308D
:1038D00083B00446884690F84491002B3CD00025E4
:1038E000B8F1000F3BD0B9F1000F3DD009FB05F74F
:1038F00097FBF3F7FFB2FF2F36D0274497F86D31CF
:1039000004F5A27603EB4303334459782046FFF7CE
:1039100043FF05F13002014654F8220097F86D315B
:1039200090F814E003EB430333448EF0010E9A78D1
:10393000A37CCDF800E004F013FB97F86D3161191A
:1039400003EB43031E44727881F88B21013594F810
:10395000D430EDB2AB42C3D803B0BDE8F08394F8E5
:1039600044312F46AB42C6D805F1300354F823004A
:1039700004F042FB6319FF2283F88B21E6E700BFC6
:103980002DE9F04F437987B0022B04460F4600F033
:103990002F8194F810A0BAF1000F40F08B80637C67
:1039A00094F844110493002940F09A8004F24513DE
:1039B00094F86CB1059304F5A275BBF1000F1BD010
:1039C0000BEB4B00204490F845615B46BE4200F093
:1039D000C482D84605E096F845C1BC4500F02E816A
:1039E000984603EB4303234493F8470100EB40065A
:1039F000034626440028EED10C2900F0508101F145
:103A0000010CDA465FFA8CFC012303EB43062E44DB
:103A100096F801801846B8F1FF0FDEB203F10103FA
:103A200003D00D2BF1D1012006464FEA400808EBE8
:103A30000003234483F847A183F8457183F84621A6
:103A400084F86C61F1B194F86D3103EB43032344C6
:103A500093F84531BB4298BF01230AD957E192F848
:103A6000292002EB4202224492F845219742C0F0FD
:103A700051815FFA83F9894505EB03029A4603F108
:103A80000103ECD3631883F86D6184F844C1BCF181
:103A9000000F3DD0049A012A00F04482C0F09182C8
:103AA000022A35D1214491F86D3103EB43031D44C3
:103AB0006F1C2FE0AAF10503DBB2022B40F2388124
:103AC0000AF1FF3ABAF1070F00F24382DFE81AF079
:103AD000A601130258002002410241024102AF0137
:103AE000049B012B00F01B82C0F07782022B40F078
:103AF0006C82481EC3B2234493F86D3104F5A2755D
:103B000003EB43032B440133059394F86CB154E762
:103B100004F24517059A397813788B4263D094F8EC
:103B2000D430BCF1010F94BF4FF000094FF00109F0
:103B3000002B58D00025B8460EE0A37CEEB901203A
:103B40000090384604F00CFA013594F8D430EDB208
:103B5000AB4248D998F8001005F13003204654F8DC
:103B60002370FFF719FEE67C0146012E98F801202C
:103B7000E3D1B9F1000F39D14B4689F00100DFE7FD
:103B8000B248B34D0368B34905FB03F594F8D4304C
:103B900029440D0EB5FBF3F603FB16550160EDB29B
:103BA0009D42C0F0F5812378102B18BF43F090049C
:103BB000A94B08BF9024D3F88410481C00F07F0064
:103BC000C3F88400D3F884005C54411C01F07F01E9
:103BD000C3F88410D3F884101F54481C00F07F00F1
:103BE0005A54C3F8840007B0BDE8F08FA37CC4E743
:103BF00090F8D530002B7FF4CCAE0378102B18BF93
:103C000043F09005944B08BF9025D3F88410481CCE
:103C100000F07F00C3F88400D3F884005D54411C99
:103C200001F07F01C3F88410D3F884101F54481C9E
:103C300000F07F005A54C3F88400AAE608EB480855
:103C400096F84761A04488F84761002900F0ED82AA
:103C500094F86D61864218BF012605D183E199F879
:103C60002890814500F082815FFA86FCB04661456C
:103C700006F1010605EB0609F1D8481EC1B203EBB7
:103C8000430323440020FF260C2983F8456183F871
:103C9000470183F8460184F844117FF4B0AE294609
:103CA0000023012090460E1B2E44A6F59F7C9CF815
:103CB000002003330331A6F5A07602B93078242B17
:103CC000F1D14246BBF1000F00F0F4820BEB4B0147
:103CD000214491F845615B46864200F03F82DC4614
:103CE00005E096F84581804500F081819C4603EB14
:103CF0004303234493F8471101EB41060B46264446
:103D00000029EED1DA460C214FF00D0C7CE64FF085
:103D10000009CA460B46E218013B92F86C71DBB20F
:103D20004B4582F86D71F6D8A2448AF86D61ACE615
:103D300094F86C91B9F1000F1BD009EB49012144B3
:103D400091F845014B46B84200F021824E4605E00D
:103D500090F84551BD4200F0CE811E4603EB43036F
:103D6000234493F8471101EB41000B4620440029FE
:103D7000EED194F8441104F5A2750C2900F02282CA
:103D800001F1010C5FFA8CFC012000EB40062E448F
:103D900096F801800346B8F1FF0FC6B200F10100AA
:103DA00003D00D28F1D101231E4603EB4303234426
:103DB00083F8479183F8457183F8462184F86C6154
:103DC000E9B194F86D3103EB4303234493F8453193
:103DD000BB4298BF01230AD9ABE092F8292002EB3D
:103DE0004202224492F845219742C0F0A580D8B201
:103DF000884205EB0302984603F10103EDD3214409
:103E000081F86D61BAF10501204618BF012184F8DF
:103E100044C107B0BDE8F04FFFF756BD94F88A01E2
:103E2000002840F01481FF2594F8D430B8E694F8C7
:103E30008A010028F7D094F87A3103F07F03BB425F
:103E400000F04C82012304F5BD710DE0AC020020AE
:103E50000D6619005FF36E3C48050020CE5C01330F
:103E600006F07F06BE4228D0DDB2A8429C46F5D8B7
:103E700004F5C17C0B46FF251E1B0E44A6F5B97642
:103E800036780133B04207D904EB060898F97A81F5
:103E900015EA280538BF35466345EDD1FF2D08BF2B
:103EA000072309D1E61896F88261013BDBB2B042E4
:103EB00088BF3546FF2BF5D1AC46A44467F07F039D
:103EC0008CF87A31072604F5B97C0B46181B084498
:103ED0006FF4B57840440078013B854206D04FFA34
:103EE00086F8A044013E88F88201F6B26345EDD120
:103EF00084F8825198E794F88F5194F8D4309D4219
:103F000039BF691CC9B20121002584F88F1147E629
:103F100094F8D43003FB02F5C5F3C71540E694F8D6
:103F20006D31EBE594F86D3103EB43031D446F1CD9
:103F3000F0E54FF0000840466318013993F86C2112
:103F4000C9B2814283F86D21F6D8A04488F86D612A
:103F500058E794F8D430002522E690F847B1184687
:103F600084F86CB171E64FF00008C446481E8045E5
:103F7000BFF684AE414621440CF1010C91F86E610C
:103F80005FFA8CFC844581F86D616146F3DB75E670
:103F9000204639460392FFF7D9FA05F1300320464F
:103FA000394654F82380FFF7F7FB0126A37C01462E
:103FB000039A404600962C4403F0D2FF84F88B719C
:103FC00011E6404405446F1CA4E504F2451394F83F
:103FD0006CB1059304F5A275EFE494F86CB104F5A7
:103FE000A2750BEB4B032B4401330593E5E40CEB7B
:103FF0004C0C96F8476104EB0C0080F84761DA46F8
:1040000094F86D01884218BF012000F0588105EB3B
:10401000000C9CF82980064688455FFA80FC00F178
:10402000010000F0A1800C28F1D103EB43032344ED
:1040300000210B20FF2683F8471183F8461183F8EF
:104040004561014684F844014FF00C0CDCE494F81F
:104050007A3103F07F03BB4200F03A81012304F57B
:10406000BD7105E0CE5C013306F07F06B74226D075
:10407000DDB2A8429C46F5D804F5C17C0B46FF256D
:104080001E1B0E44A6F5B97636780133B04207D927
:1040900004EB060898F97A8115EA280538BF3546F9
:1040A0006345EDD1FF2D08BF002307D1CE18367A26
:1040B0000133B04288BF3546082BF7D1AC46A44443
:1040C00067F07F038CF87A31072604F5B97C0B463C
:1040D000181B08446FF4B57948440078013B8542C9
:1040E00006D04FFA86F8A044013E88F88201F6B265
:1040F0006345EDD1FCE690F8475106EB4606A01962
:1041000080F8475194F844B1BBF1000F00F0DB8018
:1041100094F86D01884240D0012004F5A27503E0B7
:1041200098F8288088453DD0C6B284465E4500F1A7
:10413000010005EB0008F3D30BF1FF3B03EB430356
:10414000234400205FFA8BF1FF2683F8456183F852
:10415000470183F8460184F844110EE691F847A11F
:10416000594684F86CA14BE70B2E18BF31463FF43B
:104170005CAF21440CF1010C91F86E015FFA8CFCEC
:10418000BCF10A0F81F86D016146F2DD4DE791F84F
:104190004791194684F86C91B4E74FF0000C6646DD
:1041A00004F5A2750BF1FF3BE345C7DD61462144F1
:1041B000013691F86E01F6B25E4581F86D01314627
:1041C000F5DBBBE7294600234FF0010C081B284410
:1041D000A0F59F76367803330331A0F5A0700EB9B1
:1041E00090F800C0242BF1D1B9F1000F19D009EBE0
:1041F0004901214491F845014B46604544D04E4663
:1042000004E090F84581E04512D01E4603EB4303DD
:10421000234493F8471101EB41000B462044002949
:10422000EFD10C214FF00D0CAEE54FF0FF3025E53E
:1042300090F847C106EB4606A01980F847C194F8EC
:104240006D01884218BF01204ED005EB000C9CF890
:104250002980064688455FFA80FC00F1010019D0EC
:104260000C28F2D103EB4303234400210B20FF264B
:1042700083F8471183F8461183F84561014684F8B5
:1042800044014FF00C0C7FE591F84791194684F8F2
:104290006C91D4E70B2EE5D0A1190CF1010C5FFA5B
:1042A0008CFC91F86E01BCF10A0F81F86D01664635
:1042B000F2DDD7E70C214FF00D0CFFF7A5BB4FF057
:1042C000000C614655E704F5A2754FF0FF3B35E75A
:1042D0004FF0000C654604F5BD71F0E64FF0000CA0
:1042E000654604F5BD71E8E54FF0000C6646D3E77E
:1042F0002DE9F041437982B0022B044600F0AC80F6
:10430000A37E012B00F09780237C002B3AD194F8F8
:104310004451667C002D77D194F86C8104F24517E6
:10432000B8F1000F19D008EB4802224492F8450179
:104330004346884206D189E190F845C18C4500F09A
:10434000F080984603EB4303234493F8472102EBA4
:10435000420013462044002AEED1002D40F0A380F5
:1043600094F8D4305BB105F1300354F8230003F026
:1043700043FE013594F8D430EDB2AB42F3D802B02D
:10438000BDE8F0815A1FD2B2022A40F2FB80012B15
:1043900000F0348194F8D40090B194F88B318B42C2
:1043A00000F0F1812346002504E093F88B218A4236
:1043B00000F03E810135EDB2854203F10103F4D1F5
:1043C00023780024102B18BF43F08005CF4B08BF83
:1043D0008025D3F88420501C00F07F00C3F88400AF
:1043E000D3F884009D54421C02F07F02C3F884205D
:1043F000D3F884201954511C01F07F019C54C3F858
:10440000841002B0BDE8F081012E00F0ED80C0F014
:104410007581022E40F06D8105F1FF385FFA88F357
:10442000234493F86D3194F86C8103EB4303E71850
:1044300007F2451774E7B64B03F1400003E004337D
:1044400083423FF461AF1A7A8A42F8D15A7AFF2A3E
:1044500004BFC0225A72F2E790F8D530002B7FF4E7
:104460004FAF03780025102B18BF43F08006A74BF1
:1044700008BF8026D3F88420501C00F07F00C3F8CA
:104480008400D3F884009E54421C02F07F02C3F8DB
:104490008420D3F884201954501C00F07F009D54D0
:1044A000C3F884002CE7012E00F09680C0F019813B
:1044B000022E40F013816B1EDBB2234493F86D3162
:1044C00003EB4303E61806F245163B7831788B423E
:1044D0003FF455AF94F8D430002B3FF450AF002593
:1044E00000E0317805F13003204654F82370FFF7DF
:1044F00053F994F813E0A37CDEF1010E38BF4FF0BE
:10450000000E014672783846CDF800E003F028FD31
:10451000013594F8D430EDB2AB42E2D802B0BDE838
:10452000F08108EB480890F84711A04488F847113B
:10453000002D00F0258194F86D11914218BF0121E2
:1045400005D189E098F86C81904500F08880C8B268
:104550008C46854201F1010104EB0108F2D805F116
:10456000FF3803EB430323445FFA88F80022FF215E
:1045700083F8451183F8472183F84621454684F89E
:104580004481EAE694F86C61C6B106EB4602224427
:1045900092F845013346884205D1BBE090F8455179
:1045A0008D426CD01E4603EB4303234493F847210E
:1045B00002EB420013462044002AEFD12046FEF7CA
:1045C000C5FF237C062B7FF4DAAE2046012102B022
:1045D000BDE8F041FFF778B994F86D3103EB430380
:1045E000E61806F2451670E794F86D3194F86C8180
:1045F00003EB4303E71807F2451791E694F88A6145
:104600009EB194F87A0100F07F00884207D198E0CB
:10461000D05C013300F07F00884200F09680DDB26C
:10462000B54204F5BD721F46F2D3FF2594F8D400BD
:104630008542BFF4C5AE05F1300354F8230003F002
:10464000DBFC2C44FF2384F88B3198E692F8471169
:10465000424684F86C116BE74FF0000C604605F1A0
:10466000FF38C445BFF67DAFA44401309CF86E21ED
:10467000C0B280458CF86D218446F5DC71E790F876
:10468000475106EB4606A01980F8475194F844E1DB
:10469000BEF1000F79D094F86D01904218BF01204F
:1046A00004D13DE097F86C7197423BD0C5B2064605
:1046B000754500F1010004EB0007F3D30EF1FF3E56
:1046C00003EB430323440022FF2083F8450183F8D2
:1046D000472183F8462184F844E16FE704F2451648
:1046E000F3E694F86C3103EB4303E61806F2451643
:1046F000EBE694F86C8104F2451711E694F86C81AE
:1047000008EB4807274407F2451709E6480500204B
:10471000C404002092F84701324684F86C01B5E7E2
:10472000002635460EF1FF3EB645C9DD264401356B
:1047300096F86E21EDB2AE4586F86D212E46F5DC79
:10474000BEE700273D4604F5BD72274487F87A018D
:1047500004F5B97C13460726181B10446FF4B5778F
:1047600038440078013B854205D077B22744013EAA
:1047700087F88201F6B26345EED184F8825155E79D
:104780004FF0FF38EDE6002552E74FF0FF3E97E788
:1047900090F8D6302DE9F0410646EBB103460024EF
:1047A00003E0242C03F1030310D093F8DC5003340E
:1047B0009542F6D193F8DD1061F07F000029F0D02A
:1047C000242C83F8DD0003F10303EED17379012B70
:1047D0002DD00020BDE8F08190F80071C7B107EB43
:1047E0004700304490F8D9403B46944205D160E000
:1047F00094F8D950954229D01F4603EB4303334424
:1048000093F8DB0000EB4004034634440028EFD16A
:1048100096F838308BB196F8953173B10B06D5D533
:1048200011463046FFF764FD7379012BD1D196F81C
:10483000D50080F00100BDE8F08196F83230002B01
:10484000ECD111463046FFF753FDEDE794F8DB500D
:1048500007EB4707F41984F8DB5096F8D880B8F1D5
:10486000000F3DD096F80141844218BF012404D1C5
:1048700025E09CF800C1844523D0E5B22746A84531
:1048800004F1010406EB040CF3D808F1FF3803EB44
:10489000430333440020FF2483F8D94083F8DB002E
:1048A00083F8DA0096F8383086F8D880002BC4D028
:1048B000B1E790F8DB40384686F80041CDE70027A5
:1048C0003D4608F1FF38B845E1DD3744013597F83A
:1048D0000201EDB2A84587F801012F46F5DCD6E7C5
:1048E0004FF0FF38D3E700BF70B50646044600F12D
:1048F000240502E00334AC420FD094F9DD30002BE4
:10490000F8DA317894F8DC20102908BF002130460D
:104910000334FFF73DFFAC42EFD170BD2DE9F84FF6
:1049200090F8D7500446174699464FEAD118002D03
:1049300040F03A8194F80011D9B101EB41032344CE
:1049400093F8D9200846BA4200F015810E4605E0DA
:1049500093F8D920BA4200F0A880064600EB400048
:10496000204490F8DB5005EB450328462344002DF6
:10497000EED1234613F8D85F8A460C2D00F0CB8089
:1049800005F1010C5FFA8CFC012202EB4201194493
:1049900049781046FF29D6B202F1010203D00D2A50
:1049A000F3D10120064600EB4000204480F8DBA054
:1049B00080F8D97080F8DA9084F80061E5B194F855
:1049C000012102EB4202224492F8D920BA4298BF58
:1049D000012009D92DE092F8292002EB420222445D
:1049E00092F8D920974226D3C1B2A94203EB000224
:1049F000824600F10100EED3254485F8016194F868
:104A0000383084F8D8C013B194F8952102BB94F8DB
:104A10003220EAB9204639464A46FEF7B1FF94F8FB
:104A20009631FBB96379012B00F0CA800020BDE804
:104A3000F88F00218A466319013D93F80021EDB2F9
:104A40008D4283F80121F6D8A2448AF80161D6E7A5
:104A5000B8F1000F00F0F78039464A462046FEF7CD
:104A60008FFFDFE7B8F1000FDCD194F8383094F80D
:104A7000992104EB420191F83A0081F8397049EA32
:104A8000000981F83A90013294F89711D2B284F873
:104A9000992121B99A4201D984F8382040239A42B9
:104AA00024BF002384F89931BCE706EB460693F84F
:104AB000DB30264486F8DB308A4694F8D8B0BBF168
:104AC000000F00F0C68094F80131AB4259D00126A6
:104AD00004F1D80303E09CF828C0AC4555D0F2B2ED
:104AE00031465A4506F1010603EB060CF3D30BF1F0
:104AF000FF3B5FFA8BF500EB400020440022FF21D2
:104B00000C2D80F8D91080F8DB2080F8DA2084F8AA
:104B1000D8507FF435AF184600224FF0010C051B2A
:104B20001D4415F8D26C033203300EB915F8D4CCFD
:104B3000242AF4D1BAF1000F19D00AEB4A0121441A
:104B400091F8D900524660456AD0554604E091F884
:104B5000D96066453AD0154602EB4202224492F8EB
:104B6000DB0000EB4001024621440028EFD10C2578
:104B70004FF00D0C08E793F8DBA00D4684F800A178
:104B80009BE700210A4604F1D8030BF1FF3B8B455C
:104B9000AFDD2144013291F80261D2B25A4581F869
:104BA00001611146F5DBA4E790F8D650002380F8A8
:104BB000D630FFF799FE84F8D75084F8D650B9E67E
:104BC00094F8D50080F00100BDE8F88F91F8DB6023
:104BD00005EB4505611981F8DB6094F8011181420C
:104BE00018BF01213AD05E1896F829C00D468445B9
:104BF000CEB201F1010119D00C29F4D102EB42022D
:104C00002244FF2500200B2182F8D95082F8DB00D6
:104C100082F8DA000D4684F8D8104FF00C0CB3E699
:104C200091F8DBA0104684F800A1D6E70B2DE5D063
:104C30002544013695F80211F6B20A2E85F80111C5
:104C40003546F5DDDAE794F89621002A7FF40FAFB8
:104C5000E8E64FF0FF3B04F1D8034AE7002635466B
:104C6000E6E700BFF8B5551E164604461F467E2DE2
:104C700046D8DFE805F05757455745454545454572
:104C800045454545454545454545454545454545D4
:104C900045454545454545454545454545454545C4
:104CA00045454545454545454545454545454545B4
:104CB00045454545454045454545454545454545A9
:104CC0004545454545454545454545454545454594
:104CD0004545454545454545454545454545454584
:104CE00045454545456B854545454545454A9245BC
:104CF0004A4D4F528D003F2F63D9012380F8D630A3
:104D00006079003018BF0120F8BDFEF79BFBF7E784
:104D10000170F5E710230370F2E700230374FEF738
:104D20003FFCEDE790F8D430002BE9D0002505F1E9
:104D3000300354F8230031463A4603F061F9013557
:104D400094F8D430EDB2AB42F1D8D9E790F896316F
:104D5000002BD5D090F89931812104EB430282F8E1
:104D60003910013394F89721DBB284F8993172B38A
:104D700094F838209342C3D3002384F89931BFE7D5
:104D800090F89631002BBBD090F899318021E4E760
:104D900001230374FEF704FCB2E790F8D430002539
:104DA00080F8D650002BABD005F1300354F8230027
:104DB00003F000F8013594F8D430EDB2AB42F3D8EB
:104DC0009EE7002380F8D630FFF78EFD98E794F831
:104DD00038209A4201D284F838304022CAE700BF16
:104DE000F8B590F80EC10546BCF1000F7BD000F578
:104DF000877695F837E195F836710EEB4E0333441C
:104E00005978C7B107EB47022A4492F80F013B4695
:104E1000884205D14BE090F80F418C4214D01F46D8
:104E200003EB43032B4493F8112102EB420013469A
:104E30002844002AEFD12846FFF75AFA95F80EC108
:104E4000BCF1000FD5D1F8BD07EB470790F8110171
:104E50002F4487F81101BCF1000F30D0964518BFE0
:104E6000012404D12EE09EF828E096452CD0E0B233
:104E70002746604504F1010406EB040EF3D30CF160
:104E8000FF3C03EB43032B440022FF2083F80F0178
:104E900083F8112183F81021284685F80EC1FFF709
:104EA00027FA95F80EC1BCF1000FA2D1CBE792F81A
:104EB00011013A4685F83601BCF1000FCED14FF012
:104EC000FF3CDEE7002738460CF1FF3CBC45D8DD4F
:104ED0002F44013097F83821C0B2844587F8372134
:104EE0000746F5DCCDE7F8BD2DE9F04790F898319D
:104EF000044603F11C0600EB4606717801360F06E6
:104F000000F1888090F8D8300D46002B40F09A8050
:104F10007278170600F1D0802046FFF761FF7278A3
:104F2000EDB2294602F07F022046FEF729FD777890
:104F300094F8369107F07F07B9F1000F1BD009EB09
:104F40004902224492F80F114B46A94200F04181D8
:104F50004E4605E091F80F01A84200F0D2801E46AF
:104F600003EB4303234493F8112102EB4201134660
:104F70002144002AEED194F80E2104F587760C2AFC
:104F800000F0F48002F101085FFA88F8012000EBDC
:104F90004001314449780346FF295FFA80FC00F163
:104FA000010003D00D28F2D101239C4603EB4303FB
:104FB000234483F8119183F80F5183F8107184F81A
:104FC00036C1E2B194F8373103EB4303234493F83D
:104FD0000F31AB4298BF012309D978E091F829102D
:104FE00001EB4101214491F80F11A94271D8D8B2C7
:104FF000904206EB03011F4603F10103EED3224466
:1050000082F837C194F8312094F8983184F80E81F1
:10501000A4F89A2194F838200133DBB29A4284F83C
:1050200098319CBF002384F898311C3304EB430370
:105030005A780133812A59D093F90130002B55DB7E
:10504000BDE8F08790F89F31002B3FF461AF90F8F6
:105050009E319BB990F8383083B190F83920100612
:105060000DD5581EC0B204EB4000234604E093F86F
:105070003B200233150602D58342F8D13C2294F836
:10508000003103EB4303234493F8D9309A1A1144B7
:105090008DB22BB27F2B04DD0C3DADB22BB27F2B3A
:1050A000FADC002BBFF634AF0C35ADB22B04FBD4C9
:1050B000727817067FF530AFEDB2204602F07F021E
:1050C0002946FEF75DFC2046FFF78AFE2FE7002702
:1050D0003846A318013A93F83611D2B2824283F8C7
:1050E0003711F6D8274487F837C18BE76B4994F816
:1050F0003020B4F89A318A5C1344A4F89A31BDE8A0
:10510000F08706EB460691F81111264486F8111136
:1051100094F80EA1BAF1000F00F0B78094F837119F
:1051200091425CD0012004F5877603E098F828804E
:10513000904559D0C1B28446514500F1010006EBBB
:105140000008F3D30AF1FF3A5FFA8AF203EB430354
:1051500023440021FF200C2A83F80F0183F811114A
:1051600083F8101184F80E217FF40CAF324600232F
:105170004FF0010C111B3144A1F58470007803330A
:105180000332A1F5857108B991F800C0242BF1D143
:10519000B9F1000F19D009EB4902224492F80F111E
:1051A0004B4661455BD0484604E091F80F81E045ED
:1051B00029D0184603EB4303234493F8112102EB53
:1051C000420113462144002AEFD14FF00D080C2272
:1051D000DCE692F811911A4684F8369198E74FF080
:1051E000000C614604F587760AF1FF3AE245ABDD33
:1051F000A44401319CF83801C9B28A458CF83701C2
:105200008C46F5DCA0E791F811C100EB40002118B5
:1052100081F811C194F83711914218BF012139D09A
:1052200006EB010C9CF82980084690455FFA81FC4A
:1052300001F1010119D00C29F2D103EB43032344FE
:1052400000220B21FF2083F8112183F8102183F81D
:105250000F010A4684F80E114FF00C0896E692F8FA
:1052600011911A4684F83691D4E70B28E5D02044F2
:105270000CF1010C90F838215FFA8CFCBCF10A0F9C
:1052800080F837216046F2DDD7E74FF0FF3A04F5AA
:10529000877659E74FF0000C6046E8E7ECAE00086F
:1052A0002DE9F04FCB4B90F8341090F8352033F8BF
:1052B000111085B0044690F89131002A40F0D48056
:1052C00001229A4010200090114294F8D89000F0EA
:1052D000C080B9F1000F00F0BC80B9F1010F94F863
:1052E000321000F0E88094F83300032800F0EC80DE
:1052F00094F8922194F8933152B24A4580F21C817D
:10530000002AC0F219815BB28B4280F2F580002B3B
:10531000C0F2F2802046FFF763FD94F83330052B8E
:1053200000F06281042B00F0EB8294F89231234468
:1053300093F8013103EB43032344D93394F89321C9
:10534000197802EB420201EB8201C9B25A780806D1
:1053500002F07F0203D50C39C9B20B06FBD494F8D6
:105360003681B8F1000F1BD008EB4800204490F8BC
:105370000F5143468D4200F09882474605E095F86C
:105380000F618E4200F0F1801F4603EB430323447C
:1053900093F8110100EB4005034625440028EED1A7
:1053A00094F80E0104F587750C2800F0C08200F116
:1053B000010C5FFA8CFC012606EB46072F447F7830
:1053C0003346FF2F5FFA86FE06F1010603D00D2E4D
:1053D000F2D101239E4603EB4303234483F811815A
:1053E00083F80F1183F8102184F836E1E0B194F8C6
:1053F000373103EB4303234493F80F318B4298BFBB
:10540000012309D947E096F8296006EB46062644B1
:1054100096F80F61B14241D3DFB2874205EB030634
:10542000984603F10103EED3204480F837E184F875
:105430000EC12046FEF7A4FA94F8923194F8941124
:1054400094F83120194494F8913184F89211A4F819
:105450009A21009A0133DBB29A4298BF002384F864
:10546000913105B0BDE8F08F90F8371000920098A8
:105470005A18B2FBF0F100FB112200F2FF7001217B
:10548000400194F8365001FA02F280B252492844A1
:1054900051F8201018E74FF000084746231801384C
:1054A00093F83651C0B2874283F83751F6D3A044FF
:1054B00088F837E1BBE701297FF415AF002384F8B2
:1054C000923184F8933125E7444A454D1068454BA5
:1054D00005FB00F00344180CC5B2001295FBF1F770
:1054E00090FBF9F601FB175109FB1600136084F8D5
:1054F000931184F892010DE794F894315AB2002A7E
:10550000DABF01F1FF32D2B20022022884F89321DF
:105510007FF400AF5B42DBB25AB2002A84F89431C8
:105520001BDD012284F89221002352B24A4584F8FF
:105530009331DBB2FFF6E4AE94F89421134452B2F7
:10554000002AD8BF09F1FF32DBB2D4BFD2B20022A9
:1055500084F8933184F89221D5E6A9F10202D2B2FF
:105560004B1E84F89221DBB2DFE795F8116107EB5F
:105570004707E51985F8116194F80E91B9F1000F0C
:1055800000F0528294F83751854200F09481012650
:1055900004F5877504E09CF828C0844500F09081EC
:1055A000F7B2B6464F4506F1010605EB060CF2D3FD
:1055B00009F1FF3903EB4303234400265FFA89F026
:1055C000FF2783F80F7183F8116183F8106184F865
:1055D0000E01E9E644CB0008A0D70008AC02002089
:1055E0000D6619005FF36E3C04F1D8034FF000081C
:1055F000029304F58775CDF80C9094F8D81094F8C0
:1056000000910139C8EB010111F0FF0109D000231D
:10561000013309EB4909DAB2A144914299F8DB90D0
:10562000F6D8029B09EB4909994409F1010A9AF855
:10563000013094F836B103F07F03019399F80160CB
:10564000BBF1000F1AD00BEB4B02224492F80F1162
:105650005B46B14200F0E0805F4604E091F80F0144
:10566000B04274D01F4603EB4303234493F8112147
:1056700002EB420113462144002AEFD194F80E2197
:105680000C2A00F0988002F1010E5FFA8EFE0121D3
:1056900001EB4100284440780B46FF28CFB201F1CE
:1056A000010103D00D29F3D101231F4603EB43036E
:1056B0000198234483F811B183F80F6183F8100136
:1056C00084F83671E2B194F8373103EB4303234495
:1056D00093F80F31B34298BF012309D927E091F81D
:1056E000291001EB4101214491F80F118E4221D381
:1056F000D8B2824205EB03019B4603F10103EED8C9
:10570000224482F8377184F80EE19AF8012099F862
:10571000011002F07F022046FEF732F908F101087D
:1057200003995FFA88F399423FF667AF84E64FF03A
:10573000000B5846A318013A93F83611D2B28242B0
:1057400083F83711F6D8A3448BF83771DBE707EB02
:10575000470791F81111274487F8111194F80EC1E9
:10576000BCF1000F00F0428194F83711914218BF4C
:10577000012104D156E09EF828E0964554D0C8B2E5
:105780000F46844501F1010105EB010EF3D80CF140
:10579000FF3C5FFA8CF203EB430323440021FF201C
:1057A0000C2A83F80F0183F8111183F8101184F883
:1057B0000E217FF468AF2A4600230127111B2944DC
:1057C000A1F58470007803330332A1F5857100B927
:1057D0000F78242BF2D1BBF1000F19D00BEB4B0249
:1057E000224492F80F115B46B94258D0DE4604E0DD
:1057F00091F80F01B84227D09E4603EB43032344A0
:1058000093F8112102EB420113462144002AEFD103
:105810004FF00D0E0C223AE792F811B11A4684F8B7
:1058200036B19BE7002738460CF1FF3CBC45B0DDA4
:105830003A462244013092F83811C0B2604582F8ED
:1058400037110246F5DBA4E70EEB4E0E91F811116D
:10585000A6448EF8111194F83711914218BF012116
:1058600000F0DF806F1897F829E008469645CFB220
:1058700001F1010135D00C29F4D103EB430323449A
:10588000FF21002283F80F110B2183F8112183F8E7
:1058900010214FF00C0E0A4684F80E11F7E692F82C
:1058A00011B11A4684F836B1D5E790F8118118463F
:1058B00084F8368160E64FF0000E774604F5877570
:1058C00009F1FF39F1457FF775AE70462044013785
:1058D00090F83861FFB24F4580F837613846F5DB04
:1058E00068E60B2818BF0246C7D02244013792F859
:1058F0003811FFB20A2F82F837113A46F5DDBCE7BE
:1059000094F8D80094F892310138C01A10F0FF00D2
:1059100094F800313FF40EAD0022013203EB430353
:10592000D1B22344884293F8DB30F6D802E528460A
:1059300000234FF0010E061B2E44A6F584773F7816
:1059400003330330A6F585760FB996F800E0242BD3
:10595000F1D1B8F1000F19D008EB4800204490F8BD
:105960000F614346764544D0474604E096F80FC1A0
:10597000F4450FD01F4603EB4303234493F8110172
:1059800000EB4006034626440028EFD14FF00D0CF3
:105990000C2010E596F811E107EB4707E61986F8A9
:1059A00011E194F83761864218BF012641D005EB1A
:1059B000060E9EF829C0374684455FFA86FE06F13A
:1059C00001061CD00C2EF2D103EB4303234400202C
:1059D0000B26FF2783F8110183F8100183F80F715C
:1059E000304684F80E614FF00C0CE4E44FF0FF3CBD
:1059F000CFE690F81181184684F83681D1E70B2F55
:105A000018BF3846E0D020440EF1010E90F83861FE
:105A10005FFA8EFEBEF10A0F80F837617046F2DD44
:105A2000D2E700273A4660E74FF0FF3904F5877563
:105A3000C0E54FF0000E7046E5E700BFF8B590F8FE
:105A40009031044653B990F838301BB190F8953135
:105A5000002B5CD194F83230002B54D1B4F89A3139
:105A60001BB994F80E21002A43D1013BA4F89A31C6
:105A700094F89031274A94F830100133515CDBB22E
:105A8000994284F890319CBF002384F89031A37D23
:105A9000632B32D9134413F8643CB4F89C7194F826
:105AA000D420B7FBF3F003FB10700004B0FBF3F05D
:105AB000DAB10004002202F1300354F8233001323D
:105AC000D96CDE6E1D6F0E44AE1B06449D6EC1EB9D
:105AD000000C06EB6C0605EBE625D86619679D669B
:105AE00094F8D430D2B29342E5D80137A4F89C712F
:105AF000F8BD2046FFF774F9BAE7B4F89C71013796
:105B0000A4F89C71F8BD2046FFF7CAFBA6E7FFF793
:105B1000EBF9A3E7ECAE000810B50023044680F8CB
:105B20009531FFF75DF92046BDE81040FDF78ABCCE
:105B300070B50024064680F89541FFF751F93046CC
:105B4000FDF780FC96F8D4307BB106EB8405D5F8E0
:105B5000C00002F051FAD5F8C00002F02BF9013470
:105B600096F8D430E4B2A342EFD870BD00220346C9
:105B7000F0B403F8012B00F18102FF2103F8011BAF
:105B80009342FAD100F20113FF2102F8011B9A425D
:105B9000FAD1124C0027237EFDB223B1227A022AC9
:105BA0001BD103445D70617E81B1237A022B14BF47
:105BB00001260426002300E0617E00EB431201333E
:105BC0001144DAB2964281F88150F5D80137312F6D
:105BD00004F11C04DFD1F0BC7047FEE7C8F00008F8
:105BE0002DE9F0410C46097A164601291D4617D0C9
:105BF00012D302290ED11078164F4FF4D07808FB3B
:105C00000070A17A64301A46FDF794FDA189B1B9FC
:105C1000BDE8F081BDE8F081A37AC554BDE8F0810C
:105C20000C4F1A46A17A3846FDF71CF897F86030F9
:105C300032789A42ECD3013B3370BDE8F08133787F
:105C40002A4608FB0370BDE8F041C9B26430FDF795
:105C500071BD00BFEC06002010B5FF290ABF00F19E
:105C60008104441C5109A25C82B0FF2A8DF8071000
:105C700016D00F4CC2EBC20204EB82018C7C0A7C72
:105C80000134A41AE4B203FB04F38C7BC3F3C713FF
:105C90001344032CDBB205D00DF10702FFF7A0FF80
:105CA00002B010BD03F0FE03262B98BF2723F3E7B5
:105CB000C8F000080B7A012B12D00ED3022B0AD1A8
:105CC00003784FF4D07202FB03F2897A064B6032FC
:105CD0000A44D05C7047002070478B7AC05C7047E4
:105CE0008A7A024BD05C7047F0060020EC06002058
:105CF00038B50D461446FFF7DDFFAB7B0246092B96
:105D000000F2B280DFE803F008304805657B818946
:105D10009528272A00F0C6807C49A1FB0253DB08A6
:105D200003EB8300A2EB4002303213F0FF036270FA
:105D30000DD0A1FB0301C90801EB8101A3EB4103D5
:105D400003F13002D2B200232270A37038BD2022AA
:105D500000232270A37038BD6B69204653F82210CF
:105D6000BDE8384004F042BB53B2002BD4DA09330B
:105D7000C0F2A6805342654ADBB2A2FB0312D208EE
:105D800002EB8202A3EB420303F1300100222D2338
:105D90006170A270237038BD01325C49D2B2A1FBA0
:105DA0000203DB0803EB8300A2EB40023032627097
:105DB00003F0FF02002BCAD0A1FB0231C90801EB9E
:105DC0008101A2EB41023032D2B200232270A370D3
:105DD00038BD102A00F0958001324C49D2B2A1FBA7
:105DE0000253DB0803EB8300A2EB40023032627007
:105DF00003F0FF02002BAAD0A1FB0201DEE7002A7C
:105E00008AD1434B1868206038BD202A84D9414B81
:105E10001A889B782280A37038BD632A7FF67CAFF6
:105E20003D4B643A204653F82210BDE8384004F058
:105E3000DDBA322A1ED83549A1FB0253DB0803EB39
:105E40008300A2EB4002303213F0FF03627030D0C7
:105E5000A1FB0301C90801EB8101A3EB410330332E
:105E600000222370A27038BD2C4B1A889B782280A8
:105E7000A37038BD333A2549D2B2A1FB0253DB08E7
:105E800003EB8300A2EB40023032627003F0FF02AA
:105E90009BB1A1FB0201C90801EB8101A2EB410208
:105EA000303250E71E4B03CB1B78206023726160B9
:105EB00038BDA3705423237038BDA2705223FAE773
:105EC00052421248D1B2A0FB0123DB08DAB2A0FB98
:105ED0000250C00800EB800003EB8303A1EB4303F7
:105EE000A2EB400230323033D2B2DBB220252D207B
:105EF00000212270227163706371A570E070A1713E
:105F000038BD084B1868206038BD00BFCDCCCCCC64
:105F100060EA00084CEA000848F6000864EA000855
:105F200050EA00085CEA000870B516460C460546C3
:105F3000FFF7C0FEA37B012B0ABF42B2024692B21A
:105F4000238A324412B219B28A4205DBB4F9123004
:105F50009A42B8BF13469BB2284621462A46DBB276
:105F6000BDE87040FFF73CBE2DE9F047DFF82CE1BB
:105F7000074688462025BEE80F0038607960BA6081
:105F8000FB60BEE80F003E4638617961BA61FB6193
:105F90000EF174040EF2F469C7F8005405F1100311
:105FA000B3F5806F10D8234653F830ED7A1958684E
:105FB0009968DB6847F805E050609160D360D7F8D6
:105FC00000541035C7F8005405F12003B3F5806F75
:105FD0001ED8234653F820CD7A19D3F804E09868E8
:105FE000D96847F805C0C2F804E09060D160D3F8E2
:105FF00010C0D3F814E09869D969C2F810C0C2F88B
:1060000014E09061D161D7F800542035C7F80054EE
:1060100005F19003B3F5806F09D8781921469022D5
:1060200004F0BEF8D7F800549035C7F8005404F5D2
:10603000D0744C45B2D108F101085FFA88F808F530
:10604000003808F177084FEA882803F033FE40460D
:1060500003F070FE032DA9460CD94446C8EB070A8D
:1060600020465AF80410043D03F086FE032D04F187
:106070000404F5D81FFA89F14B1E9BB241B10133DC
:106080001F44002116F8013B1944BE4289B2F9D1E0
:1060900009EB0800BDE8F04703F09EBEEC060020C7
:1060A0002DE9F8438E4E04464FF0200E88460FCE61
:1060B00020606160A260E3600FCE20617046E36102
:1060C00000F11003B3F5806F06F2F46725466161B5
:1060D000A26106F17406C4F800E412D8334653F8FE
:1060E00030CD2218D3F804E09968DB6844F800C08A
:1060F000C2F804E09160D360D4F800041030C4F812
:10610000000400F12003B3F5806F22D8334653F822
:10611000209D2218D3F804C0D3F808E0D96844F8C9
:106120000090C2F804C0C2F808E0D160D3F8109023
:10613000D3F814C0D3F818E0D969C2F81090C2F8A7
:1061400014C0C2F818E0D161D4F800042030C4F8BB
:10615000000400F19003B3F5806F0BD906F5D076FB
:10616000BE42814615D0484600F11003B3F5806F5A
:10617000C7D8B3E731462044902204F011F8D4F890
:10618000000406F5D0769030BE42C4F80004814683
:10619000E9D108F10101C9B201F5003177318E0270
:1061A000314620464A4603F0FBFF1FFA89F3591E89
:1061B00039F8060089B243B101312144002315F8B2
:1061C000012B13448D429BB2F9D1984202D000209A
:1061D000BDE8F8830023C4F800344148FBF70EFF04
:1061E000D4F8005405F1200CBCF5806F17D804EBEF
:1061F000050EDEF80000DEF80410DEF80820DEF8F8
:106200000C30374E65460FC6DEF81000DEF814106D
:10621000DEF81820DEF81C30C4F800C40FC605F103
:106220001002B2F5806F2F4B12D82544D5F800E04C
:106230006E68A868E96843F830EC43F82C6C43F8C2
:10624000280C43F8241CD4F800541035C4F800542A
:1062500005F12002B2F5806F1FD82544D5F800E083
:106260006E68A868E96843F820EC43F81C6C43F8B2
:10627000180C43F8141CD5F810E06E69A869E96998
:1062800043F810EC43F80C6C43F8080C43F8041C7A
:10629000D4F800542035C4F8005405F19002B2F54A
:1062A000806F0AD818469022611903F079FFD4F85C
:1062B000002403469032C4F8002403F5D073BB4297
:1062C00007D0D4F8005405F11002B2F5806FBFD8A2
:1062D000ABE70348FCF7EEFC0120BDE8F88300BF04
:1062E000EC060020800700202DE9F0432A4D002213
:1062F0000646C0F80024074683B005F5CC600023AD
:1063000004E00233162B144614D02246E9180C8BF5
:10631000911CB1F5806FADF80640F2D8BDF80610BB
:106320000233B152D6F80044162B04F10204C6F829
:106330000044EAD105F5CC75854201D02246DEE75E
:1063400003F0B8FC154803F0F5FC032CA1460BD96B
:10635000124DB0462846043C58F8041B03F00CFDCF
:10636000032C05F10405F5D81FFA89F14B1E9BB2E9
:1063700041B101331E44002117F8013B1944B742D3
:1063800089B2F9D109F1006000F5EE3003B0BDE843
:10639000F04303F021BD00BFD00D002000DC010858
:1063A000F0B5354E00220546C0F80024074683B0FC
:1063B000A6F5CC60002304E00233162B144614D05B
:1063C0002246C1180C8B911CB1F5806FADF80640C8
:1063D000F2D8BDF806100233A952D5F80044162BA6
:1063E00004F10204C5F80044EAD100F5CC70B042D3
:1063F00001D02246DEE721492246284603F0D0FE9E
:1064000004F10061A4B201F5EE31631E08889BB26D
:1064100084B30133E918002317F8012B13448F428A
:106420009BB2F9D1984202D0002003B0F0BD002108
:10643000134CC5F8001404F11607234601E0D5F803
:1064400000148A1CB2F5806F4FF0010004D8695A1D
:10645000C5F80024ADF80610BDF806200233DA8234
:10646000BB426075EBD104F5CC74A642DDD0D5F803
:106470000014E0E72346D5E73014002000DC0108D3
:10648000D00D00202DE9F041394E044620270FCED3
:1064900020606160A260E3600FCEE3613B46A261D1
:1064A00003F11002B2F5806F06F17405C4F80074B0
:1064B0002061616106F2F46610D82A4652F830CDA8
:1064C000E11857689068D26844F803C04F6088604C
:1064D000CA60D4F800341033C4F8003403F1200249
:1064E000B2F5806F1ED82A4652F8208DE118D2F8F6
:1064F00004C09768D06844F80380C1F804C08F6076
:10650000C860D2F81080D2F814C09769D069C1F879
:106510001080C1F814C08F61C861D4F800342033F2
:10652000C4F8003403F19002B2F5806F0BD905F581
:10653000D075B542194615D00B4603F11002B2F5DD
:10654000806FCBD8B9E72946E018902203F028FEE7
:10655000D4F8003405F5D0759033B542C4F8003452
:106560001946E9D12046BDE8F041FBF7F3BB00BF77
:10657000EC060020F0B500230546C0F8003483B0D7
:106580003D48FBF73BFDD5F8004404F1200CBCF579
:10659000806F0ED82F1938687968BA68FB68364E54
:1065A00064460FC638697969BA69FB69C5F800C4E1
:1065B0000FC6324B04F11002B2F5806F03F5D066BE
:1065C00012D82C44D4F800C06768A068E16843F88A
:1065D00030CC43F82C7C43F8280C43F8241CD5F825
:1065E00000441034C5F8004404F12002B2F5806F75
:1065F0001FD82C44D4F800C06768A068E16843F84D
:1066000020CC43F81C7C43F8180C43F8141CD4F835
:1066100010C06769A069E16943F810CC43F80C7CAD
:1066200043F8080C43F8041CD5F800442034C5F89E
:10663000004404F19002B2F5806F0AD81846902207
:10664000291903F0ADFDD5F8002403469032C5F8B2
:10665000002403F5D073B34207D0D5F8004404F109
:106660001002B2F5806FBFD8ABE7034803B0BDE8B6
:10667000F040FCF71FBB00BFEC06002080070020A5
:1066800090F88831044A03EBC30302EB83031B7EBB
:1066900080F88831704700BF9000002090F8883162
:1066A0000D4803EBC30300EB8302D36910B44BB175
:1066B00048681C7892F82010204440B24CB2A042A6
:1066C00003DA19705DF8044B704792F92110884283
:1066D000B8BF0146C9B2F4E79000002038B590F980
:1066E0008B31114D1B0103F10802A95804462A44BD
:1066F000A9B12B44D868C2070DD5401022589B6819
:106700002044D358984794F98B311B011D442B79B1
:1067100084F8883138BD9B6804EB6000F2E752686A
:10672000D107F3D5E5E700BF38F7000890F98D31C0
:106730000B2B03D0072380F88831704705220023F4
:1067400080F8882180F88D31704700BF022380F8DF
:106750009431704790F88A31496810B41944C9B22D
:10676000CBB25AB2002A80F88A310EDB0A4C0B4BAE
:10677000247853F824305DF8044B9B5C312B04BF24
:1067800001F1FF3180F88A117047002380F88A31C7
:106790005DF8044B704700BFEC060020C8F6000807
:1067A00010B40F4A90F88C314FF4CC7404FB0323DF
:1067B00090F88D21043390F8590103EB42024968A7
:1067C000148B002814BF0120202000FB114080F30F
:1067D00010001083012159755DF8044B704700BF0C
:1067E000CC0D002090F8883110B40F4C03EBC3039C
:1067F00004EB8302D369012480F894414BB14868CB
:106800001C7892F82010204440B24CB2A04203DA27
:1068100019705DF8044B704792F921108842B8BF97
:106820000146C9B2F4E700BF90000020034B0021ED
:10683000012283F8451D83F8442D7047EC060020A3
:1068400090F98D21034B00F58A7053F822100A4607
:1068500002F066BF74F80008B0F99231134A10B420
:1068600082FB0342D917C1EB620202EB4201A3EBA8
:1068700081030F491BB201EB430411F81310637835
:1068800080F85A11202B02D10A4B12B29B5C0024D3
:1068900000F5AD7180F85B3180F85C410A4600F587
:1068A0008A705DF8044B02F03BBF00BFABAAAA2A76
:1068B000B4F70008A8F7000890F98B31034A1B01D0
:1068C000D15800F58A700A4602F02ABF38F700084E
:1068D000024900F58A700A4602F022BFD0F700088C
:1068E000024900F58A700A4602F01ABFD4F7000880
:1068F000084A094B127800F58A7053F8221090F973
:106900007630064ACB5CC3EBC30302EB83014A68D3
:1069100002F006BFEC060020C8F60008C8F0000828
:1069200038B50E4A0E4B127800F5AD7553F82210AB
:1069300090F98A310B4ACB5C0446C3EBC30102EBEE
:10694000810109482A46FFF7D3F9294604F58A70E0
:106950002A46BDE8384002F0E3BE00BFEC06002046
:10696000C8F60008C8F0000860140020094B00F5C4
:10697000AD711A889B78A0F85A218B7090F89021FD
:1069800090F85B3100F58A70134480F847300A466E
:1069900002F0C6BED8F7000810B590F88E11044674
:1069A00008290CD090F8883180F88F11042B0B48FF
:1069B0000DD0FFF775FB002384F8883110BD90F8E7
:1069C0008F3180F88E31002384F8883110BDFFF7B5
:1069D000CBFA002384F8883110BD00BF6415002075
:1069E00010B590F98C310446042B06D0062380F8AC
:1069F0008831002384F88D3110BD002380F8883160
:106A000080F88C310148FFF76FFCF2E76415002035
:106A100010B5054B0446A3F644511846FAF7C2FDDB
:106A2000002384F8883110BD30140020084A094B37
:106A3000127890F98A0153F82230B1F904201B5CD6
:106A40000549C3EBC30301EB83010448FFF76CBAAC
:106A5000EC060020C8F60008C8F00008601400200A
:106A600001480021FBF7C0B9EC0600200148FFF700
:106A700009BD00BF6415002090F98E31072B05DD9C
:106A80000C4900F58A700A4602F04ABE0A4B00F52E
:106A9000AD711A889B78A0F85A218B7090F88E21DE
:106AA00090F85B3100F58A70134480F847300A464D
:106AB00002F036BEE0F70008DCF7000890F98C31F0
:106AC000032B05DD0C4900F58A700A4602F028BE4A
:106AD0000A4B00F5AD711A889B78A0F85A218B708B
